:020000040800F2
:1000000000000220193C0008173C0008153C0008BD
:10001000153C0008153C0008153C000800000000D5
:10002000000000000000000000000000173C000875
:10003000173C000800000000173C0008BD1900082C
:10004000153C0008153C0008153C0008153C00084C
:10005000153C0008153C0008153C0008153C00083C
:10006000153C0008153C0008153C0008153C00082C
:10007000153C0008153C0008153C0008153C00081C
:10008000153C0008153C0008153C0008153C00080C
:10009000153C0008153C0008153C0008153C0008FC
:1000A000153C0008153C0008153C0008153C0008EC
:1000B000153C0008153C0008153C0008153C0008DC
:1000C000153C0008153C0008153C0008153C0008CC
:1000D000153C0008153C0008153C0008153C0008BC
:1000E000153C0008153C0008153C0008153C0008AC
:1000F000153C0008153C0008153C0008153C00089C
:10010000153C0008153C0008153C0008153C00088B
:10011000153C0008153C0008153C00089119000822
:10012000153C0008153C0008153C0008153C00086B
:10013000153C0008153C0008153C0008153C00085B
:10014000153C0008153C0008153C00083D1F000840
:10015000153C0008153C0008153C0008153C00083B
:10016000153C0008153C0008153C0008153C00082B
:10017000153C0008153C0008153C0008153C00081B
:10018000153C0008153C0008153C0008153C00080B
:10019000153C0008153C0008153C0008153C0008FB
:1001A000153C0008153C0008153C0008034B1A7864
:1001B0005878002142EA002000F092BB00000020A5
:1001C000034B1A785878012142EA002000F088BBDE
:1001D0000000002010B5074B04461A78587800211B
:1001E00042EA002000F07CFB21460348BDE81040B5
:1001F00002F0E0BF020000200030014010B5074BC4
:1002000004461A785878012142EA002000F068FB81
:1002100021460348BDE8104002F0CCBF0200002098
:100220000030014070B506460D460024AC4200DBAC
:1002300070BD305DFFF7E2FF0134F7E708B500213C
:100240000D481C23032202F0FFFD0C4B1A7858784E
:1002500042EA002000F063FB094B1A78587842EA22
:10026000002000F05CFB074B1A785878BDE8084086
:1002700042EA002000F053BB0000024004000020CE
:10028000020000200000002010B50A4C237860789E
:10029000002143EA002000F023FB052001F0DCFBF5
:1002A000237860780121BDE8104043EA002000F087
:1002B00017BB00BF0400002010B5FFF7BFFFE0230D
:1002C00019481A4C0322002102F0BEFD1648A02254
:1002D000052102F0D4FDE02300220221124802F0A1
:1002E00093FD40F68C0002F003FE204602F05DFF15
:1002F0000021204602F072FF204602F07AFF2046DD
:1003000002F062FF204602F07EFF204602F057FF17
:10031000204602F05EFF204602F070FF2046BDE856
:10032000104002F03DBF00BF00000240003001401D
:10033000F0B5074687B02A2016460D461C46FFF743
:1003400049FF04213B0A0DEB01008DF80430330A0C
:100350008DF806308DF805708DF80760FFF762FFA5
:100360002B20FFF737FF04212B0A0DEB01008DF83E
:100370000430230A8DF806308DF805508DF80740BB
:10038000FFF750FF2C20FFF725FF07B0F0BD00005E
:100390002DE9F341074615461C46BDF820800E4660
:1003A000FFF704FF1A4B1A88BA4227D9194B1B884A
:1003B000B34223D9AA4221D9A3421FD9AF4282BF57
:1003C0003B462F461D46A64282BF334626461C4664
:1003D00023462A4631463846FFF7AAFFA11BE81BF1
:1003E0004FEA182301318DF804308DF8058000FBA9
:1003F00001140025A54204D1FFF7E2FE02B0BDE8DA
:10040000F081022101A8FFF70DFF0135F2E700BFDF
:10041000220000202000002007B58BB280B200929D
:1004200019460246FFF7B4FF03B05DF804FB000075
:1004300013B50446FFF7BAFE084B094A1B88128819
:1004400000940021013B013A9BB292B20846FFF7AB
:100450009FFF02B0BDE81040FFF7B2BE20000020B1
:10046000220000201FB502461449044601A801F0ED
:100470006DFAFFF79BFE3620FFF7ACFE032C09D880
:10048000DFE804F0020C11164820FFF7B7FE002049
:1004900001F07EFCFFF794FE04B010BD2820FFF7AA
:1004A000ADFE0120F4E78820FFF7A8FE0220EFE769
:1004B000E820FFF7A3FE0320EAE700BF5C43000843
:1004C0002DE9F04F89B0CDE90001FFF7DDFEFFF720
:1004D0006DFE0120FFF77EFE012001F0D9FA3923DD
:1004E0008DF80C302C23002402268DF80D30CB2003
:1004F00034238DF80F308DF80E408DF81060FFF723
:1005000069FE052103A8FFF78DFE4FF0C1093023D6
:10051000CF208DF80E308DF80C408DF80D90FFF740
:1005200059FE032103A8FFF77DFE85238DF80C30CB
:10053000E8204FF078038DF80E308DF80D40FFF76E
:1005400049FE032103A8FFF76DFEEA208DF80C4059
:100550008DF80D40FFF73EFE314603A8FFF762FE1F
:1005600064228DF80C20122203258DF80E20ED2038
:1005700081228DF80F208DF80D50FFF72BFE0421FE
:1005800003A8FFF74FFE2022F7208DF80C20FFF77D
:1005900021FE012103A8FFF745FE4FF0100BC020FC
:1005A0008DF80CB0FFF716FE012103A8FFF73AFE05
:1005B00048468DF80CB0FFF70DFE012103A8FFF7A8
:1005C00031FE3E228DF80C20C52028228DF80D200A
:1005D000FFF700FE314603A8FFF724FE8622C7205E
:1005E0008DF80C20FFF7F6FD012103A8FFF71AFE96
:1005F0004FF0480336208DF80C30FFF7EBFD01215A
:1006000003A8FFF70FFE55223A208DF80C20FFF7C4
:10061000E1FD012103A8FFF705FE1822B1208DF8A6
:100620000D208DF80C40FFF7D5FD314603A8FFF7EC
:10063000F9FD82224FF008088DF80D20B620272200
:100640008DF80E208DF80C80FFF7C4FD294603A815
:10065000FFF7E8FDF2208DF80C40FFF7BBFD01210C
:1006600003A8FFF7DFFD012626208DF80C60FFF7B9
:10067000B1FD314603A8FFF7D5FD2B228DF80E20E2
:100680004FF00C028DF80F204E228DF81220F1222F
:100690008DF81320092037220F2731234FF00E0A3F
:1006A0008DF814208DF819000722E0208DF80D3008
:1006B0008DF815208DF817508DF81A408DF80C70B4
:1006C0008DF810A08DF811808DF816B08DF818A057
:1006D000FFF780FD394603A8FFF7A4FD07228DF838
:1006E000112014204FF00C0231238DF80C408DF8AE
:1006F0000E008DF80F5011244FF048058DF817208B
:10070000E12036228DF812308DF818308DF819203E
:100710008DF80DA08DF810408DF813908DF81450C1
:100720008DF815808DF816708DF81A70FFF752FD50
:10073000394603A8FFF776FD2046FFF74BFD7820EA
:1007400001F08AF929208DF80C50FFF743FD31465E
:1007500003A8FFF767FDFFF733FD044B019A1A80EA
:10076000034B009A1A8009B0BDE8F08F20000020EA
:100770002200002030B54FF4C060C3B002F0B8FBD7
:1007800040F2036002F0B4FB4C4C40F6050002F06E
:10079000AFFB042000F0ECF823786078012143EAF5
:1007A000002000F09DF8032002F0C0FB032002F0BF
:1007B00027FC032002F0D2FB0028FAD040F61C00F0
:1007C00002F096FB032002F087FB40F61C0002F0CB
:1007D0009DFB0025002002F04DFC0420072302228F
:1007E000A821009502F0BAFC02F07EFC284602F037
:1007F00007FC002002F0B2FB0028FAD0002002F033
:10080000A1FC052002F092FC042002F083FC02F01F
:10081000D9FA02F0E1FA072002F0C8FA022002F049
:100820006DFC002002F0CCFB254B264D1D60264BB5
:10083000264A1A60264B274A1A60042002F01AFC46
:100840004FF47A7229461023042001F0C7F8237868
:10085000607843EA002000F079F8FFF7EFFCFFF73B
:10086000AFFCFFF729FD01F071FB4FF4A071F02000
:10087000FFF726FE4FF4A072F021174801F036F979
:100880000020FFF7D5FD0320FFF7ECFD2821002015
:1008900001F06AFA00214FF4FC6001F073FA0220C3
:1008A00001F068FAFFF782FC0C4902A801F04EF84B
:1008B00002A801F04FFA002043B030BD7D4300088C
:1008C00014000020007A030A1800002080DE800255
:1008D0001C00002000BD0105190400086B4300083E
:1008E00017B402460C460123C2F343018B4099B270
:1008F000C2F3421303F5801302F001028033A242D7
:10090000ADF804004FEA832004D003B05DF8044B37
:1009100002F06CBA03B05DF8044B02F069BA17B488
:10092000C0F34214C0F34302012304F58014934042
:100930008034ADF80400C0F30122C0F382219BB2E1
:10094000A00203B05DF8044B02F05EBA82B0C0F3BF
:100950004303ADF80400C0F34210012100F58010FC
:100960009940803089B2800202B002F044BA00009F
:100970007FB5420705461DD51F4B1B88ADF80430D7
:100980001E4B1B88ADF806301D4B1B88ADF8083098
:100990001C4B00241B88ADF80A30ADF80C4001AEAA
:1009A00036F81430ADF8003000980134FFF7B7FF87
:1009B000052CF5D1AB071DD5134B1B88ADF80430C2
:1009C000124B1B88ADF80630114B1B88ADF8083070
:1009D000104B1B88ADF80A30ADF80C30002401AD87
:1009E00035F81430ADF8003000980134FFF797FF68
:1009F000052CF5D104B070BD7D4300087943000893
:100A00007B430008774300087543000873430008E0
:100A10006F430008714300089A4238BF88547047FA
:100A200070472DE9F84F99460D9B15469A07DDE969
:100A30000B4706468B4622D02A460A9901EB04084A
:100A40001444A2421FD10D9B9B0705D5A2EB0508BC
:100A5000474505EB08041FD82046BDE8F88F4B46F4
:100A600059462020B04708F10108B8450AEB0802B2
:100A7000F5D33A1BBC4288BF00222A44DDE7A046DA
:100A8000A5EB040AF1E702F1010A18F8010D4B4643
:100A90005946B0475246D4E74B4622465946202095
:100AA000B04708F10108D3E72DE9F047DDE90D76FD
:100AB00016F0020FDDE90854DDE90BC89DF828E0C7
:100AC0001FD106F001094FB1B9F1000F06D0BEF1F8
:100AD000000F02D116F00C0F00D0013F4FF0300A8A
:100AE00004E0202C04D005F804A00134A045F8D877
:100AF0004FF0300AB9F1000F03D0BC4201D21F2CD5
:100B000034D916F0100F1FD016F4806F33D194B380
:100B1000444501D0BC422ED1B4F101082AD0BCF129
:100B2000100F33D1023C16F0200F31D11F2C15D8F5
:100B30004FF0780C05F804C001341F2C0ED84FF08C
:100B4000300C05F804C001341F2C07D8BEF1000F8B
:100B500023D04FF02D0C05F804C00134CDE90A76FE
:100B6000CDE90854BDE8F047FFF75BBF05F804A0E6
:100B70000134BFE74446BCF1100FD4D0BCF1020FE2
:100B8000DBD11F2CEAD84FF0620CD3E74446F5E7DF
:100B90001F2CE3D84FF0580CCCE716F0040F02D00E
:100BA0004FF02B0CD7E716F0080FD7D04FF0200CE2
:100BB000D1E72DE9F04391B0189D1A9E1D9F0DB904
:100BC00027F010077C0500D515B317F0200F14BFD0
:100BD0004FF0410E4FF0610EAC460DF1200800259C
:100BE000AEF10A0EBCFBF6F906FB19C95FFA89F4EF
:100BF000B9F1090F94BF30347444E4B2B44508F835
:100C0000014BBCFBF6F405F1010501D3202D10D1F9
:100C10001C9C05941B9C0697CDE903649DF86440D9
:100C2000CDE9015408AC0094FFF73EFF11B0BDE8D8
:100C3000F083A446D6E72DE9F04F2DED048B93B059
:100C4000DDE92065289F9A4656EA050308BF27F08C
:100C5000100709EE102A7A05DDE924B908EE100A1A
:100C600008EE901A02D556EA05033DD017F0200F82
:100C700014BF412361230A3B0DF128080024099386
:100C80005A464B463046294601F020FFD2B2092A87
:100C90008ABF099B3032D2185E45D2B275EB090388
:100CA00008F8012B04F1010401D3202C19D1279B52
:100CB0000593269B0697CDE903B39DF88830CDE9CF
:100CC00001430AAB009319EE102A18EE901A18EEA1
:100CD000100A5346FFF7E8FE13B0BDEC048BBDE8E5
:100CE000F08F06460D46CBE70024E0E70000000049
:100CF0002DE9F04F2DED088B8DB009EE903ADDE92E
:100D000020439DED1E7B0A93229B079209EE100A59
:100D1000B0EE478AF0EE678A8A46069351EC170BCD
:100D200053EC172B01F058FE80B1D14B51EC180B4E
:100D30004FF0FF3201F078FE40B951EC180B4FF044
:100D4000FF326FF4801301F051FE98B1069B22939D
:100D50000A9B079ACDE9204319EE100A19EE903A42
:100D600051468DED1E8B0DB0BDEC088BBDE8F04FEC
:100D700000F0A2B951EC180B0022002301F036FE5E
:100D8000002800F0458118EE903A18EE108A03F121
:100D90000049069BC9F30A5013F48063A0F2FF30A8
:100DA00008BF06240B9301F045FBA1A3D3E9002360
:100DB00001F0AAFBA0A3D3E9002301F0EFF9C9F3E6
:100DC00013050F4645F07F510646AA4B00224046C8
:100DD00041F4401101F0E0F999A3D3E9002301F0B7
:100DE00093FB02460B463046394601F0D7F901F035
:100DF00025FE834601F01EFB93A3D3E9002306469C
:100E00000F4601F081FB9C4B002201F0C7F901F075
:100E100015FE8FA3D3E9002305463946304601F07D
:100E200073FB064628460F4601F004FB8AA3D3E96C
:100E3000002301F069FB02460B463046394601F0BB
:100E4000ABF902460B4606460F4601F05DFB324603
:100E500041EC1A0B3B463046394601F09FF9874B6F
:100E600041EC1B0B002251EC1A0B01F077FC844B78
:100E7000002201F093F902460B4651EC1A0B01F0E7
:100E80006DFC804B002201F089F902460B4651ECC3
:100E90001A0B01F063FC324641EC1A0B3B46002072
:100EA0004FF0804101F078F902460B4651EC1A0BE5
:100EB00001F074F902460B4651EC1B0B01F04EFC9D
:100EC00005F2FF35704B002201F068F900222B0576
:100ED00001F01AFB42464B4606460F4601F0A4FDC0
:100EE000002840F09880CDE908670BF16303C72B19
:100EF000069B34BF04250525190522D558A3D3E93F
:100F000000234046494601F085FD002800F0BE80E0
:100F100055A3D3E900234046494601F067FD002868
:100F200000F0B480069B5C45C8BFA4EB0B0043F403
:100F300080634FF00005CCBF00F1FF34002406931E
:100F4000AB460A9B9D4238BF5E1B069B28BF00260E
:100F500013F0020702D0002D18BF0026BBF1000FCE
:100F600007D040464946DDE9082301F0F7FB8046FB
:100F7000894651EC180B0022002301F037FD10B117
:100F800009F100439946069B079A029423F40063F3
:100F9000CDE90363CDE9008919EE903A19EE100A04
:100FA000514600F089F875B3069B13F0200F00F14D
:100FB0000106024619EE903A14BF452065205146BD
:100FC00019EE104AA0470523002205938BEAEB7027
:100FD0000A23CDE90232A0EBEB704FEADB73013D4F
:100FE0000193009019EE903A19EE100A04953246DA
:100FF0005146FFF7DEFD37B1079BC51A079B58190D
:101000000A9BAB424BD80DB0BDEC088BBDE8F08F0E
:1010100059EC188BBDE61A4B00223046394601F0D8
:101020009DFB0BF1FF3BCDE908015EE7AFF30080CC
:10103000FB799F501344D33FB3C8608B288AC63FC7
:1010400061436F63A787D23F71A379094F930A4029
:101050001655B5BBB16B0240EF39FAFE422EE63FA2
:101060002D431CEBE2361A3F0000000080842E4125
:10107000FFFFEF7F0000F83F0000E03F00002C4042
:1010800000002440000018400000F03F002C3FF416
:1010900058AF0B9B002B3FF454AF013C51E7024685
:1010A00019EE903A19EE104A51462020A04701351A
:1010B000A4E700BF000000002DE9F04F2DED088BE4
:1010C0008FB0DDE920AB09EE103ADDE9225308EEDE
:1010D000100A08EE902A0F46049352465B4650468B
:1010E0005946249E01F078FCA0B9049B2293032367
:1010F0002193BB4B2396209318EE902A19EE103AB9
:1011000018EE100A39460FB0BDEC088BBDE8F04F61
:10111000FFF787BC4FF0FF326FF4801350465946FB
:1011200001F064FC30B1049B2293042321932396A5
:10113000AC4BE0E7AC4B4FF0FF325046594601F064
:1011400073FC70B1A94A0499239606F00403002B9E
:1011500008BF0322A64B1CBF13460422CDE9212160
:10116000C9E79BA3D3E900235046594601F05CFC34
:1011700038B999A3D3E900235046594601F036FC0B
:1011800098B1049B2496CDE9225318EE902A19EECB
:10119000103A18EE100A3946CDE920AB0FB0BDEC7D
:1011A000088BBDE8F04FFFF7A3BD00220023504697
:1011B000594601F01BFC002800F081805B46524636
:1011C0000020002100F0E8FF012382468B460593B2
:1011D00016F4806F08BF062506ABA5F12002A946CC
:1011E0003021B9F1090FA5EB090406D909F1FF393E
:1011F0004A4503F8011BF4D120245946504601F01A
:101200001DFC7C4B03EBC90393ED007B0546B0EE60
:1012100047AAF0EE67AA01F00DF902460B465046C8
:10122000594600F0B9FF53EC1A2B01F06DF9024654
:101230000B4643EC1B2B01F029FC804601F0EAF839
:1012400002460B4651EC1B0B00F0A6FF02460B4674
:1012500043EC1B2B684B002201F0E6FB88B308F13E
:101260000108404601F0D6F802460B4651EC1A0B35
:1012700001F0C6FB10B101354FF00008B9F1000FC5
:101280004ED1284601F0D6F802460B465046594644
:1012900000F082FF584B00228046894601F0A6FBF1
:1012A00030B1554B00224046494601F0BDFB10B11C
:1012B000E80700D5013506AB23440A2257E0059024
:1012C00086E74D4B51EC1B0B002201F08FFB0028F1
:1012D000D4D1B8F1000F02D018F0010FCED008F130
:1012E0000108CBE7B8FBF1F001FB10823032B8F116
:1012F000090F03F8012B09F1FF3904F1010426D885
:10130000A14406AA3021202C0FD04C4504F1010342
:101310001FD10EAA14442E2204F8202C1C46CAE722
:1013200006AB23440A21202CDCD106F00303012B59
:1013300006AB39D1049A002A36D0059A12B916F0B4
:101340000C0F02D0049A013A0492302214E0804635
:10135000E9E7A1541C46D6E795FBF2F102FB1155D3
:10136000303503F8015B01340D460029DDD0202C17
:10137000F2D1DAE71A5501340499A14214D9202C8C
:10138000F8D1049A0093CDE9014219EE103A18EE13
:10139000902A18EE100A03963946FFF742FB0FB069
:1013A000BDEC088BBDE8F08F202CEAD0059A32B155
:1013B0000EAA22442D2102F8201C0134E1E7710716
:1013C0001CD50EAA22442B21F5E700BFAFF3008005
:1013D0000000000065CDCD410000000065CDCDC10D
:1013E000884300088C430008FFFFEF7F8343000819
:1013F0007F430008984300080000E03F3207C0D553
:101400000EAA22442021D6E72DE9F04F91B0002901
:101410000A93BA4B1A9E904614BF814699460025FE
:101420000A9B187858B945452CBF08F1FF322A4667
:1014300043460020C847284611B0BDE8F08F0A9BFC
:10144000252803F101030A9306D02A466C1C434663
:101450000B91C8472546B6E1002206E02D2B14D09B
:10146000302B0CD142F001020A900A9810F8013B8F
:101470002B2B0DD0F2D8202B0DD0232B0ED0A3F187
:101480003004092C28D8002710E042F00202EBE7D4
:1014900042F00402E8E742F00802E5E742F01002F9
:1014A000E2E70A2404FB0737303F0A900A9810F855
:1014B000013BA3F13004092CF3D90A9B1B782E2B96
:1014C00067D10A9B581C5B78A3F13004092C42F4C5
:1014D000806255D8002411E02A2B08D156F8047BED
:1014E0000A90002FBCBF42F002027F42E5E70027CE
:1014F000E3E70A2000FB0434303C604684461CF8D5
:10150000013BA3F1300EBEF1090FF2D9034613F8E7
:1015100001CBBCF16C0F48D03ED8BCF1680F4DD068
:10152000BCF16A0F55D0034613F8010B0A937828D3
:101530008BD8572850D8452805D086D9462800F0A2
:101540002F81472881D100F0DF03472B04BF00F033
:10155000FD0042F40062452808BF42F02002CDE9B8
:101560000372073626F007060294F6E8022348467F
:10157000CDE9002343462A460B91FFF7B9FB21E151
:101580002A2B07D156F8044B0A9824EAE474023057
:10159000BCE70A980024B9E7BCF1740F02D0BCF193
:1015A0007A0FC0D142F48072BEE790F801C0BCF15E
:1015B0006C0FF7D142F44072831CB5E790F801C07C
:1015C000BCF1680F02D042F08002ADE742F0C002E9
:1015D000F2E742F40072A7E7A0F15803202B3FF690
:1015E00034AF0FF2080C5CF823F000BF711600084E
:1015F0004B1400084B1400084B1400084B1400084F
:101600004B1400084B1400084B1400084B1400083E
:101610004B14000871160008CB170008711600085B
:1016200047150008A5170008471500084B140008C7
:10163000711600084B1400084B1400084B140008E6
:101640004B1400084B140008711600081319000809
:101650004B1400084B140008471800084B140008EE
:10166000711600084B1400084B140008711600088E
:10167000782800F06481582800F05F816F2800F01E
:101680006081622800F05F81692822F010024FF02B
:101690000A0303D0642801D022F00C0212F4806FF8
:1016A00018BF22F00102692802F4007C01D06428EE
:1016B00041D1BCF1000F23D0073626F00706B24611
:1016C00076685AF8080B049300230593F30F002E55
:1016D0000293CDE907720694034602DA434266EBB1
:1016E0004606CDE9003643462A4648460B91FFF7A9
:1016F000A2FA0B990546564692E600BF210A000859
:10170000D00506F1040A0CD53068CDE90472CDE9A4
:10171000023400284FEAD0730193B8BF40420090D2
:1017200027E012F0400F306801D0C0B2EDE7160696
:1017300048BF00B2E9E7BCF1000F0ED0CDE9077257
:101740000022CDE90432073626F0070A06940292F9
:10175000FAE80223CDE90023C5E7D00506F1040A23
:101760000ED5CDE90472CDE90234CDF804C033685A
:10177000009343462A4648460B91FFF71AFAB8E70A
:1017800012F0400F306807D0C0B2CDE90234002318
:10179000CDE904720193C2E7160648BF80B2F4E7B0
:1017A00042F02002CDE90372073626F007060294C4
:1017B000F6E802234846CDE9002343462A460B912A
:1017C000FFF77AFC05460B992AE612F0020426D0B0
:1017D0004FF0010A56F8040B0B9143462A46C0B25B
:1017E000C84705F1010B0B995CB354465A4620E0FB
:1017F0000B9143462020C8470B990AEB05020AF1DA
:10180000010A5745F4D8002F07F1FF3308BF002322
:1018100007F1010A1D4408BF4FF0020ADAE7A246A9
:10182000EBE70B9143462020551CC8470B99013428
:101830002A46BC42F5D3A7EB0A03574538BF00231D
:101840009B445D46ECE53346002C53F804AB0B9308
:1018500014BF23464FF0FF335344D3469BF8000098
:1018600008B19B4511D112F48063ABEB0A0B0C93CA
:1018700002D0A34528BFA34612F002030D931BD14B
:10188000ABEB05032A460E9309E00BF1010BE5E7EC
:101890000F9143462020561CC8470F9932460E9B95
:1018A000D3189F42F4D8A7EB0B035F4538BF002342
:1018B0000BF1010B1D449B445646A5EB0A0A05E0BB
:1018C0001C460E9143462A46C8470E990AEB060568
:1018D00016F8010B28B10C9B002BF2D0631E002CD4
:1018E000EED10D9B9BB12A46ABEB050406E00C91B3
:1018F00043462020561CC8470C993246A318BB42C9
:10190000F5D3A7EB0B035F4538BF00231D440B9EA7
:1019100086E542F021020823CDE903430592002326
:101920001022CDE9013256F8043B00932A46434683
:1019300048460B91FFF73DF944E742F0200210239F
:10194000AAE60823A8E60223A6E600BF0EB40FB558
:1019500005AA014652F8043B0392009204484FF056
:10196000FF32FFF751FD04B05DF804EB03B07047A0
:10197000190A0008034B1B689B0702D5024801F0B7
:101980005DBC704734000020001400407047000028
:10199000074A10B5136801331360064B01241C700D
:1019A000FFF7E8FF21460448BDE8104001F034BCD1
:1019B0002C0000203100002000140040054A08B52A
:1019C000136801331360044B01221A70FFF7DEFF26
:1019D00008BD00BF2400002030000020F8B51F46DD
:1019E00005461B4816460C4601F02DFC1848791E8A
:1019F00001F02EFC3146164801F02CFCB4FBF7F444
:101A0000B4FBF6F4134BE9071C6002D5104801F053
:101A100006FCAA0702D50E4801F006FC6B0702D5AA
:101A20000B4801F006FC0A48012101F0F1FB0848CF
:101A3000012101F0F1FB0221372002F04BF93720A0
:101A400002F03AF9BDE8F840014801F0F7BB00BFE9
:101A500000140040280000200A490B4A0B68126855
:101A600010B54FF47A74B2FBF4F200FB0230074B6E
:101A700000240A68904200D210BD1C701A78002A17
:101A8000FCD0F6E72C0000202800002031000020C8
:101A9000084A09491368096800FB0130074B10B573
:101AA00000241168884200D210BD1C7019780029EA
:101AB000FCD0F6E72C000020280000203100002098
:101AC00070B4041E0DDB084DB5F90060A64208DDB8
:101AD000002906DBB5F902408C4202DD2B6970BC9F
:101AE000184770BC704700BF38000020064B5A8072
:101AF00000225A60A2F580329A60012219809A81F0
:101B00009A731861704700BF380000202DE9F74F25
:101B1000A3EB01081746A7EB0009B8F1000FB8BF07
:101B2000C8F10008B9F1000FB8BFC9F10009C845F4
:101B3000BDF8302004460D461E4604DD3B460C46EB
:101B4000374605461E46BC4205DD2B4635461E4639
:101B500023463C461F463B1B99B2A6EB050A009163
:101B6000C3F3C031BAF1000F01FA83F3B8BFCAF171
:101B7000000A4FEA630BB542B4BF01264FF0FF36AF
:101B8000BC4202DD03B0BDE8F08FC845CBBF28469C
:101B90002046214629460192FFF792FFABEB0A034C
:101BA0000FFA83FBBBF1000F019A98B205DA009B94
:101BB000354403442DB20FFA83FB013424B2DFE72E
:101BC00007B5013A0A44009313B20246FFF79EFF9D
:101BD00003B05DF804FB2DE9F041BDF818708846AC
:101BE0001E4604468518AC4201DBBDE8F081204664
:101BF0003B46324641460134FFF7E2FF24B2F2E7AA
:101C00002DE9F04F8DB01E4602F07F02BDF858302E
:101C1000059302EBC202324B9DF85C800891991843
:101C20009B5609930C230490069107930024C24607
:101C3000099B002B3ADA022C3DDD069B1A1912F99A
:101C4000032C049FBDF8105002F07F0303931FFA8A
:101C500088F30A93089B04FB08393B4608330B932F
:101C6000089B0FFA89F903EB040B039B002B2CDA7A
:101C7000B8F1010F21D1324659463846FFF720FF0F
:101C8000039B5A0053B203930A9B1D440B9B0137DD
:101C9000BB42ADB2E9D1079B5A1E013412F0FF03DB
:101CA00064B20793C4D10DB0BDE8F08F082C02DCFC
:101CB000069B1A57C5E70022C3E7009653465246D3
:101CC000494628B2FFF787FFDAE7059BB342D7D032
:101CD000B8F1010F01D11A46CEE7059B0093EDE75D
:101CE000E84300080A2813B502460BD1184B1A7BAB
:101CF000D98802EB420201EB8202DA8000229A804C
:101D000002B010BD0D28FBD0114C237B01936389D9
:101D1000B4F90610B4F9040000932389FFF770FFAB
:101D2000A388207BA17B03EBC0031BB2A380002907
:101D3000E6D0B4F90010A1EBC0018B42E0DDE388EE
:101D400000EB400203EB82020023E280A380D7E78E
:101D50003800002010B5441E14F8010F00B910BD62
:101D6000FFF7C0FFF8E70000014B9880D98070476B
:101D700038000020024B012838BF0120187370473B
:101D800038000020014B188159817047380000202D
:101D9000044B00F003025A73C20754BF024A034ABD
:101DA0001A607047380000204001F000F000400148
:101DB0004878212811D0222803D0202807D00120DC
:101DC00070474B88064A03F001031370F7E7188841
:101DD000062894BF002001207047024B1360EEE7F5
:101DE000500000204049000837B5104B00930446CE
:101DF000002540230222012101F05CFA20460095D3
:101E000040230222822101F055FA2046009510233A
:101E10000322832101F04EFA054B7F222121204627
:101E200003B0BDE8304001F0EBBD00BF351E000837
:101E3000B11D000830B5214C62882388534013F44B
:101E40007C4F17BF2388638862889BB215BF03F558
:101E50008063C3F309039B1AC3F580639BB23F2BD6
:101E600091B00ED96288C2F30902043240232244A1
:101E700001F048FA638810FA83F080B2608011B0F4
:101E800030BD40236A4601F03DFA6B46002188428E
:101E9000F5DD62882588521B92B2B2F5806FEED0D4
:101EA000628813F8015BC2F3090222440131157103
:101EB0006288013292B26280E9E700BF60000020D0
:101EC00038B51A4B1B78002B2FD0194C194D62884E
:101ED0002388534013F47C4F1ED02388C3F3090397
:101EE000C3F580639BB222881348C2F30902402BDA
:101EF00002F1040228BF402322440068822101F03D
:101F0000F9F9A0F14002534253412B70238810FA93
:101F100083F080B2208008E0638822889B1A9BB2FD
:101F2000002BE0D12A78002ADDD138BD50000020F6
:101F3000640400205E0000204C000020024B186862
:101F400008B101F0B3B970474C00002030B54FF430
:101F5000C0608DB000F0CCFF40F2876000F0C8FF99
:101F60004FF4D05331480022022100F04DFF4FF4CE
:101F7000D0520A212D4800F082FF2D4BDA7E8DF8D9
:101F80001420997C9A7E0A448DF815205A7E8DF88B
:101F900016201A7E197C0A448DF81720DA7D8DF8F8
:101FA00018209B7D8DF81930224B07AA03F11005EC
:101FB00018685968144603C40833AB422246F7D167
:101FC0001D491B78237005A806220C4610F8013B1A
:101FD0000CAD05EB131503F00F0315F8145C01F8B5
:101FE000025B0CAD2B44013A13F8143C01F8013CA0
:101FF000ECD1802322730293104B01930323104AE8
:1020000000931049104B1148114C01F025F911496A
:10201000206001F0B0FB20680F4901F045F9432032
:102020000DB0BDE8304001F047BE00BF00000240E7
:10203000007AFF1F6848000851000020680800204F
:10204000CE4800080E490008080000204849000852
:102050004C000020E91D0008C11E0008844641EA2A
:10206000000313F003036DD1403A41D351F8043B10
:1020700040F8043B51F8043B40F8043B51F8043B62
:1020800040F8043B51F8043B40F8043B51F8043B52
:1020900040F8043B51F8043B40F8043B51F8043B42
:1020A00040F8043B51F8043B40F8043B51F8043B32
:1020B00040F8043B51F8043B40F8043B51F8043B22
:1020C00040F8043B51F8043B40F8043B51F8043B12
:1020D00040F8043B51F8043B40F8043B51F8043B02
:1020E00040F8043B51F8043B40F8043B403ABDD271
:1020F000303211D351F8043B40F8043B51F8043B13
:1021000040F8043B51F8043B40F8043B51F8043BD1
:1021100040F8043B103AEDD20C3205D351F8043BA1
:1021200040F8043B043AF9D2043208D0D2071CBF6D
:1021300011F8013B00F8013B01D30B880380604696
:10214000704700BF082A13D38B078DD010F003030C
:102150008AD0C3F10403D21ADB071CBF11F8013B7C
:1021600000F8013B80D331F8023B20F8023B7BE7CB
:10217000043AD9D3013A11F8013B00F8013BF9D2F6
:102180000B7803704B7843708B7883706046704790
:1021900081F0004102E000BF83F0004330B54FEA18
:1021A00041044FEA430594EA050F08BF90EA020F85
:1021B0001FBF54EA000C55EA020C7FEA645C7FEA18
:1021C000655C00F0E2804FEA5454D4EB5555B8BF3B
:1021D0006D420CDD2C4480EA020281EA030382EAAC
:1021E000000083EA010180EA020281EA0303362D3E
:1021F00088BF30BD11F0004F4FEA01314FF4801C11
:102200004CEA113102D0404261EB410113F0004F22
:102210004FEA03334CEA133302D0524263EB4303D9
:1022200094EA050F00F0A780A4F10104D5F1200E77
:102230000DDB02FA0EFC22FA05F2801841F10001D2
:1022400003FA0EF2801843FA05F359410EE0A5F1A6
:1022500020050EF1200E012A03FA0EFC28BF4CF0D7
:10226000020C43FA05F3C01851EBE37101F000458D
:1022700007D54FF0000EDCF1000C7EEB00006EEB9A
:102280000101B1F5801F1BD3B1F5001F0CD3490824
:102290005FEA30004FEA3C0C04F101044FEA44527B
:1022A00012F5800F80F09A80BCF1004F08BF5FEA02
:1022B000500C50F1000041EB045141EA050130BDE2
:1022C0005FEA4C0C404141EB0101013C28BFB1F5F4
:1022D000801FE9D291F0000F04BF01460020B1FA3F
:1022E00081F308BF2033A3F10B03B3F120020CDA12
:1022F0000C3208DD02F1140CC2F10C0201FA0CF0F0
:1023000021FA02F10CE002F11402D8BFC2F1200C54
:1023100001FA02F120FA0CFCDCBF41EA0C0190400A
:10232000E41AA2BF01EB0451294330BD6FEA040453
:102330001F3C1CDA0C340EDC04F11404C4F120023E
:1023400020FA04F001FA02F340EA030021FA04F350
:1023500045EA030130BDC4F10C04C4F1200220FAA7
:1023600002F001FA04F340EA0300294630BD21FAE5
:1023700004F0294630BD94F0000F83F4801306BFAB
:1023800081F480110134013D4EE77FEA645C18BF9F
:102390007FEA655C29D094EA050F08BF90EA020F36
:1023A00005D054EA000C04BF1946104630BD91EA2E
:1023B000030F1EBF0021002030BD5FEA545C05D131
:1023C0004000494128BF41F0004130BD14F5800470
:1023D0003CBF01F5801130BD01F0004545F0FE41E4
:1023E00041F470014FF0000030BD7FEA645C1ABF19
:1023F000194610467FEA655C1CBF0B46024650EA50
:10240000013406BF52EA033591EA030F41F400217B
:1024100030BD00BF90F0000F04BF0021704730B501
:102420004FF4806404F132044FF000054FF00001D6
:1024300050E700BF90F0000F04BF0021704730B597
:102440004FF4806404F1320410F0004548BF40426C
:102450004FF000013EE700BF42004FEAE2014FEAC1
:1024600031014FEA02701FBF12F07F4393F07F4F9C
:1024700081F06051704732F07F4208BF704793F09F
:102480007F4F04BF41F40021704730B54FF46074B2
:1024900001F0004521F000411CE700BF50EA0102B5
:1024A00008BF704730B54FF000050AE050EA01025E
:1024B00008BF704730B511F0004502D5404261EBCE
:1024C00041014FF4806404F132045FEA915C3FF40F
:1024D000D8AE4FF003025FEADC0C18BF03325FEAAC
:1024E000DC0C18BF033202EBDC02C2F1200300FA5D
:1024F00003FC20FA02F001FA03FE40EA0E0021FA82
:1025000002F11444BDE600BF70B54FF0FF0C4CF46F
:10251000E06C1CEA11541DBF1CEA135594EA0C0F21
:1025200095EA0C0F00F0DEF82C4481EA030621EA5C
:102530004C5123EA4C5350EA013518BF52EA033597
:1025400041F4801143F4801338D0A0FB02CE4FF049
:102550000005E1FB02E506F00042E0FB03E54FF079
:102560000006E1FB03569CF0000F18BF4EF0010E71
:10257000A4F1FF04B6F5007F64F5407404D25FEA6D
:102580004E0E6D4146EB060642EAC62141EA555120
:102590004FEAC52040EA5E504FEACE2EB4F1FD0C62
:1025A00088BFBCF5E06F1ED8BEF1004F08BF5FEAE0
:1025B000500E50F1000041EB045170BD06F0004692
:1025C00046EA010140EA020081EA0301B4EB5C043F
:1025D000C2BFD4EB0C0541EA045170BD41F4801137
:1025E0004FF0000E013C00F3AB8014F1360FDEBF5C
:1025F000002001F0004170BDC4F10004203C35DA38
:102600000C341BDC04F11404C4F1200500FA05F3BA
:1026100020FA04F001FA05F240EA020001F000425B
:1026200021F0004110EBD37021FA04F642EB0601D1
:102630005EEA430E08BF20EAD37070BDC4F10C04FB
:10264000C4F1200500FA04F320FA05F001FA04F2BF
:1026500040EA020001F0004110EBD37041F10001AB
:102660005EEA430E08BF20EAD37070BDC4F12005B6
:1026700000FA05F24EEA020E20FA04F301FA05F21E
:1026800043EA020321FA04F001F0004121FA04F2C6
:1026900020EA020000EBD3705EEA430E08BF20EA96
:1026A000D37070BD94F0000F0FD101F000464000D0
:1026B00041EB010111F4801F08BF013CF7D041EA52
:1026C000060195F0000F18BF704703F00046520056
:1026D00043EB030313F4801F08BF013DF7D043EA27
:1026E0000603704794EA0C0F0CEA135518BF95EADD
:1026F0000C0F0CD050EA410618BF52EA4306D1D164
:1027000081EA030101F000414FF0000070BD50EA82
:10271000410606BF1046194652EA430619D094EA0C
:102720000C0F02D150EA013613D195EA0C0F05D1F6
:1027300052EA03361CBF104619460AD181EA03014A
:1027400001F0004141F0FE4141F470014FF0000002
:1027500070BD41F0FE4141F4780170BD70B54FF09D
:10276000FF0C4CF4E06C1CEA11541DBF1CEA13551D
:1027700094EA0C0F95EA0C0F00F0A7F8A4EB0504FF
:1027800081EA030E52EA03354FEA013100F08880F6
:102790004FEA03334FF0805545EA131343EA1263BF
:1027A0004FEA022245EA111545EA10654FEA002674
:1027B0000EF000419D4208BF964244F1FD0404F52D
:1027C000407402D25B084FEA3202B61A65EB030589
:1027D0005B084FEA32024FF480104FF4002CB6EB46
:1027E000020E75EB030E22BFB61A754640EA0C00C6
:1027F0005B084FEA3202B6EB020E75EB030E22BF06
:10280000B61A754640EA5C005B084FEA3202B6EB46
:10281000020E75EB030E22BFB61A754640EA9C0005
:102820005B084FEA3202B6EB020E75EB030E22BFD5
:10283000B61A754640EADC0055EA060E18D04FEA93
:10284000051545EA16754FEA06164FEAC30343EA33
:1028500052734FEAC2025FEA1C1CC0D111F4801F00
:102860000BD141EA00014FF000004FF0004CB6E7F9
:1028700011F4801F04BF01430020B4F1FD0C88BF98
:10288000BCF5E06F3FF6AFAEB5EB030C04BFB6EBA3
:10289000020C5FEA500C50F1000041EB045170BD96
:1028A0000EF0004E4EEA113114EB5C04C2BFD4EBC3
:1028B0000C0541EA045170BD41F480114FF0000E47
:1028C000013C90E645EA060E8DE60CEA135594EAC3
:1028D0000C0F08BF95EA0C0F3FF43BAF94EA0C0FC6
:1028E0000AD150EA01347FF434AF95EA0C0F7FF43B
:1028F00025AF104619462CE795EA0C0F06D152EA8F
:1029000003353FF4FDAE1046194622E750EA410672
:1029100018BF52EA43067FF4C5AE50EA41047FF483
:102920000DAF52EA43057FF4EBAE12E74FF0FF3CE8
:1029300006E000BF4FF0010C02E000BF4FF0010CB9
:102940004DF804CD4FEA410C7FEA6C5C4FEA430C32
:1029500018BF7FEA6C5C1BD001B050EA410C0CBF81
:1029600052EA430C91EA030F02BF90EA020F0020E3
:10297000704710F1000F91EA030F58BF994208BF4A
:1029800090422CBFD8176FEAE37040F00100704707
:102990004FEA410C7FEA6C5C02D150EA013C07D15E
:1029A0004FEA430C7FEA6C5CD6D152EA033CD3D0A9
:1029B0005DF8040B704700BF8446104662468C46A3
:1029C0001946634600E000BF01B5FFF7B7FF0028D6
:1029D00048BF10F1000F01BD4DF808EDFFF7F4FFFF
:1029E0000CBF012000205DF808FB00BF4DF808ED8A
:1029F000FFF7EAFF34BF012000205DF808FB00BFAD
:102A00004DF808EDFFF7E0FF94BF012000205DF8CE
:102A100008FB00BF4DF808EDFFF7CEFF94BF012083
:102A200000205DF808FB00BF4DF808EDFFF7C4FF7C
:102A300034BF012000205DF808FB00BF4FEA4102CF
:102A400012F5001215D211D56FF47873B3EB625200
:102A500012D94FEAC12343F0004343EA505311F027
:102A6000004F23FA02F018BF404270474FF00000B9
:102A7000704750EA013005D111F0004008BF6FF0F7
:102A8000004070474FF00000704700BF4A0011D26D
:102A900012F5001211D20DD56FF47873B3EB6252B8
:102AA0000ED44FEAC12343F0004343EA505323FAC4
:102AB00002F070474FF00000704750EA013002D139
:102AC0004FF0FF3070474FF00000704753B94AB9DC
:102AD000002908BF00281CBF4FF0FF314FF0FF3026
:102AE00000F062B9ADF1080C6DE904CE00F006F813
:102AF000DDF804E0DDE9022304B070472DE9F04F72
:102B0000099E88468E46154604461946002B40F01D
:102B1000C7804245B2FA82F746D94FB1C7F1200CBF
:102B200008FA07F320FA0CFCBD404CEA030EBC4047
:102B30004FEA15481FFA85FCBEFBF8F9220C08FB8A
:102B400019E309FB0CFA42EA03439A4528D9EB182A
:102B500009F1FF3004D29A4502D9A9F102002B44B1
:102B6000A3EB0A03A4B2B3FBF8F208FB123302FB97
:102B70000CFC44EA0344A44514D92C1902F1FF3398
:102B800003D2A44501D9931E2C44A4EB0C0443EAC0
:102B900000401EB1FC40002334607360BDE8F08F3C
:102BA0004846DDE71346F0E702B9FFDE8FBBA8EB2E
:102BB000020301214FEA154EAAB2B3FBFEFC200C22
:102BC0000EFB1C330CFB02F840EA0343984563D923
:102BD000EB180CF1FF3004D2984502D9ACF1020099
:102BE0002B44A3EB0803A4B2B3FBFEFC0EFB1C3387
:102BF0000CFB02F244EA0344A2424FD92C190CF117
:102C0000FF3304D2A24202D9ACF102032C44A41A2D
:102C1000BDE7C7F1200C28FA0CF908FA07F320FAEF
:102C20000CFCBD404CEA03024FEA154EABB2B9FBB7
:102C3000FEFC110C0EFB1C900CFB03F841EA00405B
:102C4000804504FA07F423D928180CF1FF3104D287
:102C5000804502D9ACF102012844A0EB080092B2F1
:102C6000B0FBFEFC0EFB1C000CFB03F842EA004329
:102C700098450FD9EB180CF1FF3204D2984502D9D0
:102C8000ACF102022B44A3EB080342EA014191E7B5
:102C90006146E2E76246F6E76046A2E76346B6E7CA
:102CA000434505D90EB1C6E900080021084675E77D
:102CB000B3FA83FCBCF1000F10D1434501D382422B
:102CC0000AD8841A68EB030301209E46002E68D0C0
:102CD000C6E9004E002161E76046F7E7CCF1200E1F
:102CE00003FA0CF322FA0EF41C4320FA0EF108FA50
:102CF0000CF328FA0EFB19434FEA144902FA0CF5BB
:102D0000BBFBF9F8A3B209FB18BB0A0C08FB03FADA
:102D100042EA0B42924500FA0CF73ED9A21808F19C
:102D2000FF3004D2924502D9A8F102002244A2EB5E
:102D30000A0289B2B2FBF9F809FB182208FB03F377
:102D400041EA024293422AD9A21808F1FF3104D283
:102D5000934202D9A8F10201224441EA0040A0FBBB
:102D60000598D21A42454B46414602D306D14F45FB
:102D700004D2B9EB050368EB040101388EB1FC1AEB
:102D800062EB010707FA0EFE24FA0CF34EEA030386
:102D900027FA0CF7C6E900379CE74046C7E74146EB
:102DA000DBE73146FAE60000704700BF044AD2F87C
:102DB000003C23F00F031843C2F8000C704700BF1B
:102DC00000300240034AD2F8003C43F48063C2F86A
:102DD000003C704700300240034AD2F8003C43F404
:102DE0000073C2F8003C70470030024081617047B8
:102DF000090481617047436901EA030221EA030182
:102E000041EA0241816170472DE9F0410568C468DB
:102E100000264FF0030E43FA06F7FF070DD57700A3
:102E20000EFA07FC01FA07F825EA0C0524EA0C045F
:102E300002FA07F748EA05053C430136102EEAD1AD
:102E40000560C460BDE8F081012941680CBF1943E9
:102E50009943F0B5416081680024032643FA04F5E4
:102E6000ED0707D5650006FA05F721EA070102FA22
:102E700005F529430134102CF0D18160F0BDF0B587
:102E8000076A466A00234FF00F0C42FA03F4E50785
:102E900007D59D000CFA05F427EA040701FA05F5A9
:102EA0002F430133082BF0D100234FF00F0C03F117
:102EB000080442FA04F4E40707D59C000CFA04F570
:102EC00026EA050601FA04F426430133082BEED165
:102ED00007624662F0BD0000044A1368800323F4D1
:102EE000404380B218431060704700BF007000403C
:102EF000430903F1804303F50E3300F01F00196806
:102F0000012202FA00F0084318607047430903F1F8
:102F1000804303F50E3300F01F001A68012101FA07
:102F200000F022EA0000186070470000032802D079
:102F3000052808D07047084AD2F8003843F48023A7
:102F4000C2F800387047044AD2F8703843F00403DE
:102F5000C2F87038704700BF0030024006282BD8F6
:102F6000DFE800F0041E240A10161A00134BD3F8F1
:102F70000008C0F340607047104BD3F80008C0F35E
:102F8000404070470D4BD3F80008C0F34000704735
:102F90000A4BD3F87008F8E7084BD3F87408F4E745
:102FA000064BD3F80008C0F340707047034BD3F8CA
:102FB0000008C0F3C0607047002070470030024036
:102FC000032807D10D4AD2F80838C3F38103012B37
:102FD000F9D17047042806D1084AD2F8083813F00E
:102FE0000C0FFAD170470028FCD1044AD2F80838F7
:102FF000C3F38103022BF9D1704700BF00300240B8
:1030000006280CD8DFE800F004282E0C1218200047
:10301000174AD2F8003843F08073C2F8003870477E
:10302000134AD2F8003843F48033F6E7104AD2F856
:10303000003843F00103F0E70D4AD2F8703843F04E
:103040000103C2F870387047094AD2F8743843F067
:103050000103C2F874387047054AD2F8003843F0CB
:103060008053DAE7024AD2F8003843F08063D4E7AD
:103070000030024006280CD8DFE800F004282E0CAF
:1030800012182000174AD2F8003823F08073C2F8D3
:1030900000387047134AD2F8003823F48033F6E73B
:1030A000104AD2F8003823F00103F0E70D4AD2F8B5
:1030B000703823F00103C2F870387047094AD2F81B
:1030C000743823F00103C2F874387047054AD2F807
:1030D000003823F08053DAE7024AD2F8003823F0B0
:1030E0008063D4E700300240034AD2F8003823F46A
:1030F0000023C2F80038704700300240044AD2F87A
:10310000083823F003031843C2F80808704700BFCB
:1031100000300240044AD2F8083823F4604343EAFE
:103120004030C2F80808704700300240044AD2F824
:10313000083823F4E05343EA8020C2F808087047B7
:1031400000300240044AD2F8083823F0F00343EA82
:103150000010C2F8080870470030024010B5029C09
:10316000022C38BF022424071B0603F0706304F00E
:10317000E04452081C4300F03F0047F6C073013A98
:1031800003EA8111044312040C4302F44032034B5E
:10319000144344F48004C3F8044810BD00300240D6
:1031A000036843F0400303607047036823F0400363
:1031B0000360704783689B07FCD5C1607047036854
:1031C00023F4005303607047036823F480630360B3
:1031D0007047036823F0800303607047072907D80E
:1031E000036823F038031B041B0C43EAC101016090
:1031F0007047036843F0040303607047436843F07B
:10320000040343607047036823F40063036070475E
:10321000C3681943C1607047C943016170470368BF
:1032200023F0800303607047036843F008030360E2
:103230007047036843F0040303607047036843F07A
:10324000010303607047036823F0010303607047C4
:1032500081627047C16270472DE9F0411E460368E4
:103260000546884617469847069BC360079B03613F
:10327000BDF820308382094B0367094BC366094BB5
:1032800083660023C0E90087C0E93233C0E93433E4
:10329000C0F8DC508660BDE8F08100BF2D3A000820
:1032A0008D3A00080F3B000881627047D0F8DC308F
:1032B0005B6A184710B4D0F8DC40A468A4465DF8F7
:1032C000044B604713B503680021C1820446DB79D3
:1032D00000910A46FFF7EEFFD4F8DC3000215B686E
:1032E00020469847E3691BB102B0BDE8104018477B
:1032F00002B010BD10B4D0F8DC40E469A4465DF81B
:10330000044B604710B4D0F8DC40246AA4465DF852
:10331000044B6047D0F8DC301B691847D0F8DC302C
:103320009B691847D0F8DC305B69184708B50B7803
:103330006BB949887F290BD8D0F8DC30C9B28175C8
:1033400093F830200AB15B689847012300E000231E
:10335000184608BDF8B50D464988044679B103689A
:103360000D26587C0023984201D80020F8BD6268E1
:1033700006FB032252798A4203D00133F3E74FF070
:10338000FF330133DBB2E3754BB9D4F8DC302046B0
:10339000DB689847D4F8C830ABB90120E6E70D22C6
:1033A0006FF00C0112FB03126368134400221046F5
:1033B00019799142E9D9D3F809101601715801B170
:1033C00008700132F4E70023A3642365A365236634
:1033D00004F1C80604F1D80756F8043B13B1698814
:1033E00020469847B742F7D1D7E71988012984BF0B
:1033F00001211980C37D11682BB142680D2000FBAB
:10340000032313F8083C0B700120704770B5C27D90
:103410000D241D466FF00C0314FB023344688A88A8
:103420001C442379934219D9D4F809404B881601DA
:1034300004EB021212799A4210D9A25952B11370B8
:10344000D0F8D83013B14A888988984700232B8058
:10345000012070BD002BF3D01046FAE70020F8E7FA
:1034600070B5C67D40686FF00C050D2414FB065442
:1034700020448D880479A5420CD201241C808B88BD
:10348000D0F809001B011B5803B11B7812680120FA
:10349000137070BD0020FCE71988022984BF022147
:1034A0001980116800230B70126801205370704757
:1034B00010B514461A88022A84BF02221A8089880D
:1034C000C9B2FFF72BFF2368003818BF012018701E
:1034D000236800225A70012010BD08B58988012296
:1034E000C9B2FFF717FF012008BD08B5898800227F
:1034F000C9B2FFF70FFF012008BD2DE9F04F4D883D
:103500001F462B0A022B89B0144611D0032B00F062
:10351000ED80012B40F02181026822601278398809
:103520008A4228BF0A463A80012009B0BDE8F08FE0
:10353000EDB205EB45080369D0F80490136005EB84
:1035400088083C8819F808500293A54209EB080343
:1035500028BF25461946029803932A46FEF77EFDAA
:10356000029B19F80880641B5E19A4B20023019322
:10357000039B1A79BDF804309A4204D8029BA3F841
:1035800002803D80D0E7019B019A1B010593039BBC
:10359000D3F8093003EB0213D3F808A0BAF1000FF7
:1035A00014D09AF80090A14528BFA14630464A465B
:1035B0005146FEF753FD9AF80030A4EB09044D4440
:1035C00098444E44A4B2ADB21FFA88F80023049385
:1035D000039B059AD3F809301344BDF810201979DC
:1035E000914202D8019B0133C1E7049AD3F80CA0A1
:1035F000152101FB02F90AEB09031AF809B000933F
:10360000A34528BFA346194630465A46FEF726FD75
:103610001AF809309844009BD3F80D10A4EB0B0462
:103620005D445E44A4B2ADB21FFA88F8B1B1D3F8DC
:1036300011A0A245A8BFA2461FFA8AF930464A4601
:10364000FEF70CFD009BD3F81130A4EB09044D44A8
:1036500098444E44A4B2ADB21FFA88F84FF0000966
:10366000009B1A791FFA89F39A4202D8049B01330E
:10367000ADE7009BC9EB091BD3F80930079313F89A
:103680000B2003EB0B0AA24228BF224651463046CC
:103690000692FEF7E3FC079B069A13F80B30DAF864
:1036A0000710A41A154498441644A4B2ADB21FFAE8
:1036B00088F8C1B1DAF80B20A242A8BF22461FFA4F
:1036C00082FB5A463046CDF818B0FEF7C7FCDAF850
:1036D0000B30069AA4EB0B045D4498441644A4B244
:1036E000ADB21FFA88F809F10109B9E715F0FF0535
:1036F00006690DD10923B3700423F37033703B883E
:10370000042B28BF04233B800323737026600BE740
:103710008368013D0BB3C268AA421EDD898840F26E
:103720000942914219D153F82550284600F0A8FDCE
:1037300001304000C0B230703B88984228BF184624
:10374000388000233A885208013A9A42DCDD06EBC1
:103750004302E95C51800133F4E70020E5E6198873
:10376000022984BF02211980116800230B7012689E
:1037700001205370704710B5002200F1C80454F8BE
:10378000043B3BB18B4208D00132042AF7D14FF001
:10379000FF3010BD323240F822100020F9E700005F
:1037A00010B44C78092C13D8DFE804F00E12121272
:1037B00012100C120A05084CA4465DF8044B604731
:1037C000064CF9E7064CF7E7064CF5E7064CF3E73D
:1037D00000205DF8044B704755330008EB330008B8
:1037E000FB340008993400082D33000810B44C78DD
:1037F0000A2C07D00B2C07D044B9064CA4465DF820
:10380000044B6047044CF9E7044CF7E700205DF8EF
:10381000044B70475F370008613400080D3400081E
:1038200010B44C78012C04D0032C08D01CB9094CDE
:1038300009E04C885CB100205DF8044B70474C886F
:10384000002CF8D1044CA4465DF8044B6047034CAF
:10385000F9E700BFB1340008DB340008EB3400089E
:1038600010B40C7814F0600F12D104F01F04012C76
:1038700006D0022C08D05CB95DF8044BFFF790BF6E
:103880005DF8044BFFF7B2BF5DF8044BFFF7C8BF0C
:1038900000205DF8044B704710B50368826BD9793E
:1038A000838F994204460FD20B460021FFF722FD79
:1038B000022384F82C302368A26BD979A38F0A44A1
:1038C0005B1AA263A38710BD0021FFF713FD94F8D4
:1038D0004430002B14BF0223032384F82C30002330
:1038E00084F84430A387A363EDE72DE9F04100F1AC
:1038F000380286B00446054600F1200800F13C037A
:1039000000F14007AE6C2EB9204606B0BDE8F0418C
:10391000FFF7A6BF087895F84DE095F84CC000EA8F
:103920000E00844503D008354545EBD1ECE7009700
:103930002046CDE904230391B0470128DDE90312B5
:10394000059BF0D806B0BDE8F08110B50122044611
:103950000021FFF7DFFC002384F82C3010BD70B588
:103960000368828FC48EDB79816BA41A9C42A8BF46
:103970001C46A6B20A44334600210546FFF7C2FCA6
:10398000864205D02846FFF7E0FF4FF0FF3070BDBC
:10399000AB8F1E44AE87A0B2F9E738B503698363E5
:1039A0008B79CA7943EA0223838704460D46FFF7E1
:1039B0009CFF00B3EB88ABB1A28F21689342C97919
:1039C0000ED932B1B2FBF1F301FB1322B2FA82F24B
:1039D000520984F844202046BDE83840FFF75CBF18
:1039E0000022F6E71A4619462046FFF783FC042317
:1039F00084F82C3038BD2046BDE83840FFF7A5BF1D
:103A000070B5002400F1480656F834502DB1013449
:103A1000042CF9D14FF0FF3070BD00EBC4042846F0
:103A200084F84C1084F84D20A364F5E770B5044683
:103A3000002501220564294600F13006FFF772FCDB
:103A4000E28E2AB931462046BDE87040FFF7A5BF97
:103A500094F93030002BF5DBA38A934204D2204640
:103A6000BDE87040FFF771BF2369A3632368A58792
:103A7000DB79934234BF0523062384F82C302A4691
:103A800029462046BDE87040FFF74CBC10B590F8C1
:103A90002C30062B044612D0072B27D0052B21D122
:103AA000FFF75DFF002809DBA28FE38E9B1A2268D7
:103AB000D279934202DC062384F82C3010BDFFF744
:103AC0004EFF0028FADB04F130012046FFF70DFF1E
:103AD00038B100231A4619462046FFF70BFC042391
:103AE000EAE72046BDE81040FFF72FBF00231A4643
:103AF0001946FFF707FC002384F82C30236C1BB118
:103B000004F130012046984700232364D6E710B51E
:103B100090F82C30032B044607D0042B0ED0022B38
:103B200023D1BDE81040FFF7B7BE072380F82C3043
:103B30000022BDE810401146FFF7F4BB036C13B13F
:103B400000F13001984794F8303053B994F831308F
:103B5000052B06D1618ED4F8DC30C9B25B682046F3
:103B60009847002384F82C3010BDBDE81040FFF7C3
:103B7000ECBE000008B540F28760FFF7B9F94FF0DE
:103B8000A043DA6842F04002DA601A69002AFCDADF
:103B90001A6942F001021A614FF0A0431A69D20774
:103BA000FCD4DA6B1948B2F5005F9A6B2CBF42F473
:103BB000041242F410229A634FF0A043D3F8042871
:103BC00022F00202C3F80428DA6842F0804242F48C
:103BD0007052DA6002225A61D3F8002842F00302E0
:103BE000C3F800280022C3F8002E80225A62A0F8F1
:103BF000E0209A6842F001029A60054A9A610F2219
:103C0000C3F81C280122C3F8102808BDE8080020CA
:103C100010280480FEE7704738B51D4A1D4B1E4929
:103C20008B4220D31D4A0021934221D34FF0E02341
:103C30001B4CD3F8142D1B4D42F40072C3F8142D05
:103C4000D3F8882D42F47002C3F8882DAC4212D309
:103C5000154C164DAC4212D3FCF78CFD144C154D8F
:103C6000AC4210D338BD52F8040B43F8040BD7E72D
:103C700043F8041BD8E754F8043B9847E6E754F8A8
:103C8000043B9847E6E754F8043B9847E8E700BF51
:103C9000844900080000002020000020E4090020E2
:103CA0007C4900087C4900087C4900087C490008E0
:103CB0007C4900087C490008054B420903EB82035C
:103CC00000F01F00012202FA00F01860704700BFE8
:103CD00000E100E05A2893BF00F16040044B00F07F
:103CE0000F0000F564408CBFC1540170704700BFE5
:103CF00014ED00E0D0F8DC30DA6AD2F8003823F4B2
:103D0000FE6343EA0111C2F800187047D0F8DCC026
:103D10002DE9F04311F07F05079FDCF82C6003F0DC
:103D20007F043ED13F2B31D9C6F80059DCF82C2056
:103D3000C2F81049DCF82C10D1F8002942F00842F2
:103D4000C1F80029DCF82C2044F0005444F400248D
:103D5000C0F8E840C2F8104BDCF82C10D1F8002B6A
:103D600042F00842C1F8002BBCF83220DCF82C10DD
:103D70009B0842EA03428A62B0F8E02013449BB2F7
:103D8000A0F8E030A0F8E230BDE8F0831F2B03D9A3
:103D90000122C6F80029C9E70F2B8CBF022203229B
:103DA000F7E709064FEA451E4FEA82422AD5B0F8E6
:103DB000E09005F14008990806EB880649EA0148B9
:103DC000C6F800804944A0F8E010DCF82C1001F59A
:103DD000116142EA855241F80E40DCF82C4005F1B1
:103DE000480104EB411113430C6843F0184343F4BA
:103DF000004323430B60002FC6D00C2303FB0500B8
:103E00008766C1E705F13A0106F5316644F40024FE
:103E100040F8214046F80E40DCF82C4005F15801EE
:103E200004EB411113430C6843F0144343F4004383
:103E300023430B60002FA7D00C2303FB0500C766AC
:103E4000A2E7B0F8E230D0F8DC2010B5A0F8E030FE
:103E50004FF43263D16A58580028BEBF585840F01A
:103E600080405850A3F50070D16A4458002CB8BF68
:103E7000445803F12003BCBF44F080444450B3F5E0
:103E8000386FE7D1D36A4FF486621A6110BDD0F85B
:103E9000DC0030B5C46A11BBD4F8003952B143F428
:103EA0000013C4F80039C36A5831C9B203EB411199
:103EB0000B6820E023F40013C4F80039C26A5831BB
:103EC0002023C9B213FB0122146824F400141460E7
:103ED000C26A13FB01210B6843F080530DE00B060F
:103EE00016D501F07F012023483111FB03F513FBA8
:103EF00001410B681AB143F400130B6007E023F48F
:103F000000130B60C26AAB5843F08053AB5030BD16
:103F1000002AD3D0C7E7D0F8DC3011F0800FDA6A7E
:103F200014BF01F07F0158314FF0200314BF483116
:103F3000C9B213FB01210868C0F3405070470B065B
:103F40000CD44318583183F8E420D0F8DC30490110
:103F5000DB6A22B1CA5842F00062CA507047CA58A0
:103F600042F08062F9E7F0B5D0F8DC60F06A01F069
:103F70007F0100F51160202414FB010005682D036A
:103F800018D443F400270760F06A01F1480714FBD6
:103F900007000131046844F004441D46046009032D
:103FA000002D01DC1846F0BDF06A52F8044B0C50AD
:103FB000043DF5E70023F5E737B5B0F8F8509D422A
:103FC00028BF1D46014614462B46032B1FDCA808BC
:103FD0006FF0030303FB005302EB8000A3B1D1F8A1
:103FE000DC20B1F8F840D26A032C02F5805288BF79
:103FF000043C126801928CBFA4B20024A1F8F840DE
:104000001A4601A9FEF72AF8284603B030BDD1F8B8
:10401000DC00C06A00F58050043B006844F8040BE3
:10402000B1F8F8000438A1F8F800CEE7D0F8DC3099
:10403000DA6A2DE9F047566916F40055044609D0AE
:104040005B8E4FF400515161BDE8F047A0F8E030BD
:10405000FFF738B900F168084FF00C094FF0010A7A
:10406000D4F8DC30DB6A6F0103F60813DB59DB0799
:104070000ED509FB05F358F8033013B1E9B2204619
:104080009847D4F8DC30DB6A03F6081343F807A03E
:104090000135042DE4D1F0065ED5D4F8DC00D0F86B
:1040A0002CC0DCF8202002F4F011B1F5002F02F052
:1040B0000F0526D10C2303FB054329461B6F204621
:1040C0009847D4F8DC10CB6A05F13A0003F5316269
:1040D000202313FB052254F820001060CA6A2C44E8
:1040E00005F1580094F8E41013FB002300291A6826
:1040F00014BF4FF008414FF004410A431A60BDE875
:10410000F087B1F5C02FDCD0B1F5802F01D10123AC
:104110000DE0B1F5402FF2D120230CF5116113FB16
:10412000051115FB03F70968090340D40223C2F304
:104130000A12022BA4F8F82065D1082304F13002FA
:1041400029462046FFF738FFB4F8F81000239942BB
:1041500063DC0023A4F8F830320508D5236A03B1E4
:104160009847D4F8DC30DB6A4FF400625A61002EC5
:1041700008DA636A03B19847D4F8DC30DB6A4FF0A1
:1041800000425A61330707D5A36A03B19847D4F8B0
:10419000DC30DB6A08225A61D4F8DC30A26ADB6AC0
:1041A000002A42D09A6942F008029A61A7E705F115
:1041B000480111FB03FE13FB01C3196841F00061C4
:1041C0001960C16A01F608133B44D3F800C01CF023
:1041D000400FFAD05EF801309B0DD1F810E0BEF12F
:1041E000000FFADA9B0103F4707343F020030B61B4
:1041F000C36A03F511630021D951C36A10331968EA
:104200008906FCD492E70C2303FB0543DB6E002BED
:104210009AD029462046984796E7D4F8DC20D26AFF
:1042200002F580520433126891E79A6922F008027D
:10423000BBE7D0F8DC30DB6AD3F8042821B142F0C8
:104240000202C3F80428704722F00202F9E70000D6
:10425000000000000000000000000000000000005E
:10426000000000000000000000000000000000004E
:10427000000000000000000000000000000000003E
:1042800090F800F06DE9024520F007016FF0000C96
:1042900010F0070491F820F040F049804FF000043E
:1042A0006FF00700D1E9002391F840F000F1080019
:1042B00082FA4CF2A4FA8CF283FA4CF3A2FA8CF351
:1042C0004BBBD1E9022382FA4CF200F10800A4FAB8
:1042D0008CF283FA4CF3A2FA8CF3E3B9D1E904230C
:1042E00082FA4CF200F10800A4FA8CF283FA4CF343
:1042F000A2FA8CF37BB9D1E9062301F1200182FAFD
:104300004CF200F10800A4FA8CF283FA4CF3A2FA02
:104310008CF3002BC6D0002A04BF04301A4612BA10
:10432000B2FA82F2FDE8024500EBD2007047D1E913
:10433000002304F00305C4F100004FEAC50514F0A2
:10434000040F91F840F00CFA05F562EA05021CBF73
:1043500063EA050362464FF00004A9E72072207665
:10436000616C6C7565202564200A00776F770051B9
:104370000153011F014D017E0478047A047C046618
:104380006E6900666E692B006E616E00666E692D47
:104390000000000000000000000000000000F03FEE
:1043A0000000000000002440000000000000594010
:1043B0000000000000408F40000000000088C34063
:1043C00000000000006AF8400000000080842E41D8
:1043D00000000000D01263410000000084D7974124
:1043E0000000000065CDCD4100000000314A444A84
:1043F00031BC223B22223B20204080611214181045
:1044000030303030484040203048483000001820DC
:104410004078402030160E10204040380418802C80
:1044200052121212020202182442423E4242241840
:10443000000000404040404830000040485060507C
:104440004A44402010101010182442804848484820
:1044500074404040000000622224283020081C20C4
:104460001820403C020C000000182442422418008E
:1044700000003F542424242498244242645840409D
:10448000400000001F24424224180000003F48085A
:10449000080808000000622424242418101038544E
:1044A000545438101000000000621408142380498E
:1044B0002A2A2A1C080808000000224149494936D6
:1044C000001C224141412222630F10101010105095
:1044D0003010000004027F02040000000010207F62
:1044E00020100000081C2A80808080808000000846
:1044F000007F000800007F201008060810207F00C1
:1045000030450630450600000000000000000000B5
:10451000000808080808080000081212120000002D
:104520000000001414147F147F141414083F48482A
:104530003E09097E08205122040810224502384411
:104540004428102946463920204000000000000081
:104550000810202020202010080804020202020275
:10456000040880492A1C7F1C2A4980008080807EA4
:1045700080808000800000000030101020000000CB
:10458000007F00000000000000000000000010009C
:1045900001020408102040003E4143454951614159
:1045A0003E08180808080808083E3E4101020C10A1
:1045B00020407F3E4101011E0101413E02060A12D8
:1045C000227F0202027F4040407E0101413E3E4187
:1045D00040407E4141413E7F4102040810101010CE
:1045E0003E4141413E4141413E3F4141413F010148
:1045F000413E000020000000200000A0000000005C
:104600003010102004081020402010080400000082
:104610007F007F0000001008040201020408103E21
:1046200041410204080800083E41411D555E4040DA
:104630003E1C2241417F414141417E2121213E21B9
:1046400021217E1E214040404040211E7E2121210B
:10465000212121217E7F404040784040407F7F40A3
:10466000404078404040401E214040404741211E8C
:10467000414141417F414141413E08080808080845
:10468000083E1F04040404040444384142444870B2
:104690004844424140404040404040407F41635593
:1046A0004949414141414161514945434141411CD1
:1046B000224141414141221C7E4141417E404040D6
:1046C000401C224141414145221D7E4141417E48DD
:1046D0004442413E4140403E0101413E7F080808BE
:1046E000080808080841414141414141413E4141DA
:1046F00041414141221408414141494949556341E1
:104700004141221408142241414141221408080861
:1047100008087F010204081020407F1E10101010AE
:104720001010101E0040201008040201003C040478
:1047300004040404043C3E410000000000000000AA
:10474000000000000000007F0202010000000000E5
:10475000000000001E224241463A4040405C624256
:1047600042625C0000003C424040423C0202023A8D
:10477000464242463A0000003C42427E403E0C1215
:1047800010107C10101010BA464242463A02423CC9
:10479000404040586442424242000800180808085D
:1047A000080882020202020202423C4040404448A1
:1047B000704844421010101010101010100000002B
:1047C0007649494949490000005C62424242420040
:1047D00000003C424242423CDC624242625C404059
:1047E00040BA464242463A0202020000005C624081
:1047F0004040400000003C42300C423C0010107C25
:10480000100110120C00000042424242423C0000E3
:1048100000444444442810000000414949494936B5
:10482000000000422418182442C2424242463A0282
:10483000423C0000007E040810207E0E1010102064
:104840001010100E1010100000101010003804048A
:104850000402040404383049060000000000007F10
:104860007F7F7F7F7F7F7F7F3031323334353637B4
:104870003839414243444546004D616E7566616377
:1048800074757265720053544D333246342043447C
:10489000432044656D6F00052400100105240100CC
:1048A0000104240202052406000107058303080011
:1048B00020000000000000000009040000010202C6
:1048C0000100AA48000897480008130000000902E8
:1048D000000002010080FA2049000807050102409B
:1048E00000000000000000000000070582024000F8
:1048F00000000000000000000009040100020A009E
:104900000000DB4800080000000000000000120169
:1049100000020200004055F002990002010203016A
:10492000000000000100000000000000B94800087D
:10493000000000000100000000000000F94800082D
:1049400000C2010000000800753B0008F53C0008AB
:104950000D3D0008433E00088F3E00083F3F000821
:10496000173F0008673F0008B93F00082D400008C6
:0C497000334200080000005001008000ED
:08497C0080E1FF7F0100000053
:104984000804060504040000794800088648000865
:10499400510000200024F4000024F4000024F4005A
:0400000508003C199A
:00000001FF
